:0315AE00020D37F4
:101489008F588D591215267FD0121385AF58121314
:0914990085AF5912138502155BA1
:0213D7008F562F
:1013D9001215267FD0121385AF56121385121526C2
:1013E9007FD11213851213568F57D2001215351259
:0413F900155BAF577A
:0113FD0022CD
:101057007D807F6B1214897F64121516E4FD7F6B08
:101067001214897F031215437F0212154F7F327EB8
:10107700001211F6E4FD7F38121489E4FD7F6A122D
:101087001489E4FD7F231214897D807F3712148928
:101097007F751213D7EF646870157D017F6B12148B
:0F10A70089E4FD7F6C1214897F327E001211F6EE
:0110B6002217
:0C154300EF33333354F8FD7F1B02148992
:0C154F00EF33333354F8FD7F1C02148985
:1011AD00E4FDC3EF94BCEE940040030D8036C3EF15
:1011BD009462EE940040047D028029C3EF942AEEE0
:1011CD00940040047D03801CC3EF9414EE94004002
:1011DD00047D04800FC3EF940AEE940040047D0556
:0911ED0080027D067F1A021489BC
:0411F6008E568F572B
:1011FA00D3E55794E8E556940340067556037557A8
:10120A00E8C3E5579404E5569400500675560075F0
:10121A005704AC56AD577E037FE81204B9EF14FDAC
:10122A007F19121489E556C313FEE55713FF0211FD
:01123A00AD06
:08110F008F658B668A67896811
:101117001215267FD0121385AF6512138512152677
:101127007FD1121385E4F569C3E569940674809449
:10113700805026121356AB66AA67A968856982751F
:101147008300EF120485E56964057004D20080020C
:0C115700C200121535056980CF02155B3F
:06123B008B568A5789580A
:101241007B007A00795F7F3B12110FE55FFFE5605C
:10125100AB56AA57A958CF8FF01205A7E561FFE554
:1012610062AB59AA5AA95BCF8FF01205A7E563FFBC
:0E127100E564AB5CAA5DA95ECF8FF00205A715
:0F152600D2A0D2A11215A8C2A01215A8C2A1224C
:0C155B00C2A0D2A11215A8D2A00215A8AF
:0E153500A20092A0D2A11215A8C2A10215A870
:0C156700D2A11215A8A2A0C2A10215A8D2
:021385008F6A6D
:10138700E4F56BC3E56B9408748094805016E56AA6
:1013970025E0F56A92A0D2A11215A8C2A11215A83C
:0713A700056B80DF021567F2
:10135600E4F56BD2A0F56AC3E56A940874809480BC
:10136600501AE56B25E0F56BD2A11215A8A2A0E4F0
:0E13760033426BC2A11215A8056A80DBAF6B73
:011384002246
:1014EC00E4F524C3E5249405748094805007121409
:0514FC004C052480EE08
:0115010022C7
:10144C007F04EFD394007480948040127E71EED3AD
:0E145C0094007480948040031E80F31F80E48F
:01146A00225F
:02151600AD071F
:0D151800E4FCECC39D500612144C0C80F551
:0115250022A3
:0615A8000000000000221B
:08159700020A00000208000036
:060E36008B568A57895813
:100E3C00E4F55EF55FF560F561F562F563F55CF57B
:100E4C005DAB56AA57A958855D82855C83740612E2
:100E5C0005F312056FAEF0255FF55FEE355EF55EBE
:100E6C00AE5CAF5D7C007D061204A7E92FF9EA3E6B
:100E7C00FA90000212056FAEF02561F561EE356057
:100E8C00F56090000412056FAEF02563F563EE3546
:100E9C0062F562055DE55D7002055C6404455C709D
:100EAC00A0AE5EAF5F7C007D0412050EAB59AA5A52
:100EBC00A95BEE8FF01205A7AE60AF617C007D04DC
:100ECC0012050EAB59AA5AA95B900002EE8FF012D4
:100EDC0005C6AE62AF637C007D0412050EAB59AA49
:0C0EEC005AA95B900004EE8FF00205C6CE
:10127F00E4F5F01205A7900002E4F5F01205C69010
:10128F000004E4F5F01205C6900006740875F0002E
:10129F001205C6900008740875F0001205C690007C
:0912AF000A740875F0000205C67E
:060665008B568A578958EC
:10066B000509E50970020508D39432E508940040AA
:10067B004E750800750901E9240CF9E43AA801FC50
:10068B00AD03A9587E007F06120432AB56E5582401
:10069B0006F9E43557FAC003C002C001E55824122D
:1006AB00F9E43557A801FCAD03D001D002D0037E8D
:1006BB00007F06120432AB56AA57A95812127FAB11
:1006CB0059AA5AA95B120544FFAEF0AB56AA57A91B
:1006DB0058120544FDACF0D39FEE6480F8EC6480B7
:1006EB00984006AE04AF05800CAB59AA5AA95B1211
:1006FB000544FFAEF0AB56AA57A958EE8FF0120582
:10070B00A7AB59AA5AA95B90000212056FFFAEF076
:10071B00AB56AA57A95890000212056FFDACF0D347
:10072B009FEE6480F8EC6480984006AE04AF0580C1
:10073B000FAB59AA5AA95B90000212056FFFAEF0DE
:10074B00AB56AA57A958900002EE8FF01205C6AB14
:10075B0059AA5AA95B90000412056FFFAEF0AB5675
:10076B00AA57A95890000412056FFDACF0D39FEE69
:10077B006480F8EC6480984006AE04AF05800FAB44
:10078B0059AA5AA95B90000412056FFFAEF0AB5645
:10079B00AA57A958900004EE8FF01205C6900006D8
:1007AB0012056FFFAEF0AB59AA5AA95B120544FDB7
:1007BB00ACF0C3EF9DEC6480F8EE6480985011AB05
:1007CB0056AA57A95890000612056FFFAEF0800489
:1007DB00AE04AF05AB56AA57A958900006EE8FF0A2
:1007EB001205C6AB59AA5AA95B90000212056FFFFE
:1007FB00AEF0AB56AA57A95890000812056FFDAC86
:10080B00F0C39FEE6480F8EC6480985006AE04AFA2
:10081B0005800FAB59AA5AA95B90000212056FFF16
:10082B00AEF0AB56AA57A958900008EE8FF0120500
:10083B00C6AB59AA5AA95B90000412056FFFAEF024
:10084B00AB56AA57A95890000A12056FFDACF0C31E
:10085B009FEE6480F8EC6480985006AE04AF058080
:10086B000FAB59AA5AA95B90000412056FFFAEF0AB
:0F087B00AB56AA57A95890000AEE8FF00205C697
:06088A008B568A578958C5
:10089000E4F55C120544FFAEF0AB59AA5AA95B120D
:1008A0000544C39FFFE5F09EFEC3E49FFFE49EFE68
:1008B000D3EF9400EE648094804002802FAB56AA60
:1008C00057A958120544FFAEF0AB59AA5AA95B12BA
:1008D0000544C39FFFE5F09EFED3EF9450EE648085
:1008E00094807E0040047F0180027F00EF4EAB5673
:1008F000AA57A958602A120544FF900006E5F08F18
:10090000F01205C6AB59AA5AA95B120544FFAB56B3
:10091000AA57A958E5F08FF01205A7755C01800E63
:10092000120544FF900006E5F08FF01205C6AB56A5
:10093000AA57A95890000212056FFFAEF0AB59AA52
:100940005AA95B90000212056FC39FFFE5F09EFE5F
:10095000C3E49FFFE49EFED3EF9400EE6480948096
:1009600040028035AB56AA57A95890000212056F75
:10097000FFAEF0AB59AA5AA95B90000212056FC3F3
:100980009FFFE5F09EFED3EF9450EE648094807E4E
:100990000040047F0180027F00EF4EAB56AA57A9AA
:1009A00058900002603012056FFF900008E5F08F4C
:1009B000F01205C6AB59AA5AA95B90000212056F46
:1009C000FFAB56AA57A958900002E5F08FF0120528
:1009D000C6755C01800E12056FFF900008E5F08F70
:1009E000F01205C6AB56AA57A95890000412056F1D
:1009F000FFAEF0AB59AA5AA95B90000412056FC371
:100A00009FFFE5F09EFEC3E49FFFE49EFED3EF94BC
:100A100000EE6480948040028035AB56AA57A958F6
:100A200090000412056FFFAEF0AB59AA5AA95B9073
:100A3000000412056FC39FFFE5F09EFED3EF9450B4
:100A4000EE648094807E0040047F0180027F00EF8E
:100A50004EAB56AA57A958900004603012056FFF9C
:100A600090000AE5F08FF01205C6AB59AA5AA95BAF
:100A700090000412056FFFAB56AA57A958900004C6
:100A8000E5F08FF01205C6755C01800E12056FFF50
:0C0A900090000AE5F08FF01205C6AF5C84
:010A9C002237
:100A9D00E4F55E90000612056FFFAEF0120544C33B
:100AAD009FFFE5F09EFEC3E49FFFE49EFED3EF940F
:100ABD0000EE648094804002801390000612056F52
:100ACD00FFAEF0120544C39FFFE5F09EFE8E5F8FD3
:100ADD006090000812056FFFAEF090000212056FD6
:100AED00C39FFFE5F09EFEC3E49FFFE49EFED3EFA0
:100AFD009400EE64809480400280169000081205E8
:100B0D006FFFAEF090000212056FC39FFFE5F09EE0
:100B1D00FE8E618F6290000A12056FFFAEF090009D
:100B2D000412056FC39FFFE5F09EFEC3E49FFFE433
:100B3D009EFED3EF9400EE64809480400280169068
:100B4D00000A12056FFFAEF090000412056FC39FEF
:100B5D00FFE5F09EFED3E5609562E5616480F8E502
:100B6D005F6480984020D3E5609FEE6480F8E55F78
:100B7D006480984011E5609464E55F6480948040E2
:100B8D0005755E01805CD3E5629560E55F6480F874
:100B9D00E5616480984020D3E5629FEE6480F8E5BE
:100BAD00616480984011E5629464E561648094808D
:100BBD004005755E02802BD3EF9560E55F6480F88C
:100BCD00EE648098401CD3EF9562E5616480F8EE89
:100BDD00648098400DEF9464EE64809480400375BA
:040BED005E03AF5E96
:010BF10022E1
:060BF2008B568A5789585A
:100BF800120A9DEF24FE6071147003020CD42402C3
:050C08006003020D3243
:100C0D00AB56AA57A95890001212056FFFAEF0907F
:100C1D00000C12056F2FFFE5F03EFE7C007D0212E9
:100C2D00050E8E5C8F5DAB59AA5AA95B900006121A
:100C3D00056FD3955DE55C6480F8E5F064809850B0
:100C4D0003020D32120544C3955DE55C6480F8E541
:100C5D00F06480984003020D32050BE50B70020520
:040C6D000A020D3238
:100C7100AB56AA57A95890001412056FFFAEF09019
:100C8100000E12056F2FFFE5F03EFE7C007D021283
:100C9100050E8E5C8F5DAB59AA5AA95B90000812B4
:100CA100056FD3955DE55C6480F8E5F0648098504C
:100CB10003020D3290000212056FC3955DE55C647D
:100CC10080F8E5F06480985068050BE50B7002052B
:030CD1000A805E38
:100CD400AB56AA57A95890001612056FFFAEF090B4
:100CE400001012056F2FFFE5F03EFE7C007D02121E
:100CF400050E8E5C8F5DAB59AA5AA95B90000A124F
:100D0400056FD3955DE55C6480F8E5F064809840F8
:100D14001D90000412056FC3955DE55C6480F8E5E1
:0E0D2400F06480985008050BE50B7002050A7C
:040D3200AE0AAF0B4B
:010D3600229A
:100D3700E4F529F52A1210571214D412146B120F66
:100D4700F67B017A00790012127FE4F528C3E528C3
:100D57009404748094805065E4FF1213FE750A00B2
:100D67008F0B755900755A00755B2D755C00755DA5
:100D770000755E2F7B007A00792B12123B852B5072
:100D8700852C51852D52852E53852F54853055E559
:100D97002875F006A42437F8A65008A651E528754B
:100DA700F006A42439F8A65208A653E52875F006DC
:100DB700A4243BF8A65408A6550528809075590029
:100DC700755A00755B317B007A007937120E3675DC
:100DD7005900755A00755B317B017A00790012065C
:100DE70065755900755A00755B317B017A00791872
:100DF70012088A755901755A00755B187B017A00CC
:100E07007900120BF28E298F2A85295C852A5DAB22
:100E170036AA35AD34AC33AF32AE31121163AD0BF8
:0F0E2700E4FF1214A2AF2AAE291212B8020D5125
:03000300020F8465
:100F8400C0E0C0F0C083C082C0D075D000C000C033
:0D0F940001C002C003C004C005C006C007B4
:100FA1001214EC20B202B2A2E4FDFF1214BB750AC6
:100FB10000750B001214EC7FC912157F75220075A4
:100FC10023007F2012158B0523E52370020522C320
:0A0FD1009407E5226480948040E854
:100FDB00D007D006D005D004D003D002D001D0006A
:0B0FEB00D0D0D082D083D0F0D0E03214
:0C157300256400706C6F747465723A009F
:1014D400759850758920758780758DF4758BF4D255
:0814E400AFD288D2A8D28E22FB
:0815A0008F993099FDC29922D8
:1012EE00756BFF756C15756D738E6E8F6F7B007AD7
:1012FE0000795E120062E4FEEEC3940A748094805C
:10130E00500E745E2EF8E6FF60061215A00E80E8F1
:05131E007F200215A074
:061323008B5E8A5F896009
:10132900E4FEEEC39414748094805017AB5EAA5FF8
:10133900A9608E82758300120458FF60061215A0F9
:0D1349000E80DF7F0D1215A07F0A0215A097
:101163008E568F578C588D598A5A8B5B7F7B1215FD
:10117300A07BFF7A157976121323AF57AE5612125E
:10118300EE7F2C1215A0AF59AE581212EE7F2C121F
:1011930015A0AF5BAE5A1212EE7F2C1215A0AF5DF5
:0A11A300AE5C1212EE7F7D0215A073
:1014A2008F568D571215267FA0121385AF56121331
:0914B20085AF5712138502155B8A
:0213FE008F5608
:101400001215267FA0121385AF56121385121526CA
:101410007FA11213851213568F57D2001215351261
:04142000155BAF5752
:0114240022A5
:0213AE008F2688
:1013B000E4F527C3E5279408748094805016E52649
:1013C00025E0F52692A0D2A11215A8C2A11215A857
:0713D000052780DF0215670D
:1014BB008F248D251215267FA01213AEAF24121385
:0914CB00AEAF251213AE02155B51
:1015020025640046726565207465616D00737465BB
:0415120070733A00B8
:1010B700C2A58B807F017E001210E0D2A77F057E3C
:1010C700001210E0C2A7EBC454F0F5807F017E0048
:0910D7001210E0D2A77F057E0093
:1010E000D3EF9400EE940040257DC7EDD3940074B7
:1010F00080948040127C01ECD394007480948040F2
:0E110000031C80F31D80E4EF1F70D51E80D20B
:01110E0022BE
:0C157F00AB07C2A7C2A61210B7C2A72279
:0C158B00AB07C2A7D2A61210B7C2A7225D
:10146B007F3212157F7F2812157F7F0C12157F7F1D
:0E147B000612157F7F0112157F7F8002157FFC
:100FF60078567C007D007BFF7A1579057E007F0A96
:1010060012043278607C007D007BFF7A15790F7EB2
:10101600007F071204327F8312157FE4FAEAC39435
:101026000974809480500C74562AF8E6FF12158BCA
:101036000A80EA7FC312157FE4FAEAC39406748035
:101046009480500C74602AF8E6FF12158B0A80EA29
:011056002277
:1012B800756BFF756C15756D028E6E8F6F7B007A7E
:1012C8000079561200627FC912157FE4FAEAC394C6
:1012D8000574809480500E74562AF8E6FF60061252
:0512E800158B0A80E8EF
:0112ED0022DE
:03000000020EF8F5
:0C0EF800787FE4F6D8FD75817B020F3F87
:10036200E709F608DFFA8046E709F208DFFA803E7D
:1003720088828C83E709F0A3DFFA8032E309F6086A
:10038200DFFA8078E309F208DFFA807088828C83D2
:10039200E309F0A3DFFA806489828A83E0A3F60886
:1003A200DFFA805889828A83E0A3F208DFFA804C60
:1003B20080D280FA80C680D4806980F28033801037
:1003C20080A680EA809A80A880DA80E280CA8033A0
:1003D20089828A83ECFAE493A3C8C582C8CCC58318
:1003E200CCF0A3C8C582C8CCC583CCDFE9DEE780E8
:1003F2000D89828A83E493A3F608DFF9ECFAA9F067
:10040200EDFB2289828A83ECFAE0A3C8C582C8CCBC
:10041200C583CCF0A3C8C582C8CCC583CCDFEADED5
:10042200E880DB89828A83E493A3F208DFF980CC37
:1004320088F0EF60010E4E60C388F0ED2402B40430
:100442000050B9F582EB2402B4040050AF232345D7
:0604520082239003B27347
:10045800BB010CE58229F582E5833AF583E0225059
:1004680006E92582F8E622BBFE06E92582F8E222A3
:0D047800E58229F582E5833AF583E49322BD
:10048500F8BB010DE58229F582E5833AF583E8F0AD
:10049500225006E92582C8F622BBFE05E92582C859
:0204A500F22241
:1004A700EF8DF0A4A8F0CF8CF0A428CE8DF0A42E69
:0204B700FE2223
:1004B900BC000BBE0029EF8DF084FFADF022E4CC27
:1004C900F875F008EF2FFFEE33FEEC33FCEE9DECF0
:1004D900984005FCEE9DFE0FD5F0E9E4CEFD22ED36
:1004E900F8F5F0EE8420D21CFEADF075F008EF2F80
:1004F900FFED33FD4007985006D5F0F222C398FD71
:050509000FD5F0EA220D
:10050E00C2D5EC30E709B2D5E4C39DFDE49CFCEE08
:10051E0030E715B2D5E4C39FFFE49EFE1204B9C3C3
:10052E00E49DFDE49CFC80031204B930D507C3E4BE
:06053E009FFFE49EFE2277
:10054400BB010A89828A83E0F5F0A3E02250068782
:10055400F009E71922BBFE07E3F5F009E319228944
:0B056400828A83E493F5F07401932277
:10056F00BB0110E58229F582E5833AF583E0F5F0CA
:10057F00A3E0225009E92582F886F008E622BBFEA7
:10058F000AE92582F8E2F5F008E222E5832AF583ED
:08059F00E993F5F0A3E99322B2
:1005A700BB010A89828A83F0E5F0A3F0225006F79F
:0F05B70009A7F01922BBFE06F3E5F009F319229C
:1005C600F8BB0111E58229F582E5833AF583E8F067
:1005D600E5F0A3F0225009E92582C8F608A6F02224
:0D05E600BBFE09E92582C8F2E5F008F2220B
:1005F300F5F0C582A4C582C5F0C583A42583F58320
:0106030022D4
:10000600E577246BF8E60577227868300702786B87
:10001600E475F00112062F0206042000EB7F2ED2B3
:10002600008018EF540F2490D43440D4FF30040BD2
:10003600EF24BFB41A0050032461FFE5786002156F
:1000460078057BE57B7002057A30070D7868E475E4
:10005600F00112062FEF02061D0214257403D207C3
:100066008003E4C207F5778B688A69896AE4F578C4
:10007600F57AF57BE57860077F2012004180F575FB
:1000860079FFC201C200C202C203C205C206C2088B
:1000960012000FFF700D3007057F00120052AF7B74
:1000A600AE7A22B4255FC2D5C20412000FFF24D057
:1000B600B40A00501A75F00A787830D50508B6FFEC
:1000C6000106C6A426F620D5047002D20380D924E0
:1000D600CFB41A00EF5004C2E5D204020252D20194
:1000E60080C6D20080C0D20280BCD2D580BAD205EA
:1000F60080B47F201200412002077401B5780040C9
:10010600F1120006FF12004102007AD208D20680E0
:1001160095120006FB120006FA120006F94A4B7009
:100126000679237A037BFF20022EE578602A7E007B
:100136008E8275830012045860060EEE657970F0A3
:10014600C2D5EBC0E0EAC0E0E9C0E0EE120299D009
:10015600E0F9D0E0FAD0E0FB120604FF60AAEBC09B
:10016600E0EAC0E0E9C0E0120041D0E02401F9D0A5
:10017600E03400FAD0E0FBE5790460DCD579D9807B
:10018600877BFF7A027995D202809C79108002796A
:1001960008C206C2088008D2D5790A8004790AC244
:1001A600D5E579047002F579E4FAFDFEFF12000642
:1001B600FC7B08200113120006FD7B1030000A129A
:1001C6000006FE120006FF7B20EC3382D592D55046
:1001D60013C3E43000069FFFE49EFEE42001039D66
:1001E600FDE49CFCE4CBF8C201EC700CCFCECDCC88
:1001F600E824F8F870F38017C3EF33FFEE33FEED13
:1002060033FDEC33FCEB33FB994002FB0FD8E9EBF3
:10021600300105F8D0E0C448B201C0E00AEC4D4E0A
:100226004F78207B0070C2EAB5790040BCC0E0126E
:10023600029BD0F0D0E0200104C4C0E0C4B201C0EB
:10024600F012002AD0F0D5F0EB02007A12063F0138
:10025600175301915800E84C00E44201954F019D67
:0F02660044019D4900FD4301A3550187460187CF
:100275004501874703435000EC2D00F02E01132B59
:1002850000F423011120032C2A00AC480000010BC7
:100295003F3F3F00790AA2D5200314300509B91064
:1002A500020404B9080104A2D52006025001042065
:1002B50002689202B578005034C0E07F20300319FF
:1002C5007F30A20272067205500F1202F2C202C2FC
:1002D50006C205C2087F30800F300503E9C0E01271
:1002E5000041300503D0E0F9D0E0B578CC300517F2
:1002F5007F30B9100C1200417F583004077F788099
:1003050003B908031200413002057F2D0200417F29
:10031500202008F87F2B2006F322920280CF286E3A
:10032500756C6C2900D2011200063001F8C2017803
:100335007830D50108F60200AC2D5043495812001B
:10034500062403B405004001E490033E93120032F5
:0D035500743A120032D2037578040201914F
:100F04000215AEE493A3F8E493A34003F68001F240
:100F140008DFF48029E493A3F85407240CC8C333EE
:100F2400C4540F4420C8834004F456800146F6DFBD
:100F3400E4800B0102040810204080901597E47EA1
:100F4400019360BCA3FF543F30E509541FFEE493B2
:100F5400A360010ECF54C025E060A840B8E493A379
:100F6400FAE493A3F8E493A3C8C582C8CAC583CAA4
:100F7400F0A3C8C582C8CAC583CADFE9DEE780BE5C
:01159F00004B
:10060400BB010689828A83E0225002E722BBFE02F4
:09061400E32289828A83E4932227
:10061D00BB010689828A83F0225002F722BBFE01BC
:02062D00F322B6
:10062F00FAE6FB0808E6F925F0F618E6CA3AF622CC
:10063F00D083D082F8E4937012740193700DA3A34A
:10064F0093F8740193F5828883E47374029368605E
:06065F00EFA3A3A380DF5E
:10142500EFB40A07740D121430740A309811A89994
:10143500B8130CC2983098FDA899C298B811F63027
:0714450099FDC299F59922FF
:00000001FF
